{
  "_format": "hh-sol-artifact-1",
  "contractName": "SwapToken",
  "sourceName": "contracts/SwapToken.sol",
  "abi": [
    {
      "inputs": [
        {
          "internalType": "address",
          "name": "_swapRouter",
          "type": "address"
        },
        {
          "internalType": "address",
          "name": "_weth",
          "type": "address"
        },
        {
          "internalType": "address",
          "name": "_dai",
          "type": "address"
        }
      ],
      "stateMutability": "nonpayable",
      "type": "constructor"
    },
    {
      "anonymous": false,
      "inputs": [
        {
          "indexed": true,
          "internalType": "address",
          "name": "user",
          "type": "address"
        },
        {
          "indexed": false,
          "internalType": "address",
          "name": "tokenIn",
          "type": "address"
        },
        {
          "indexed": false,
          "internalType": "address",
          "name": "tokenOut",
          "type": "address"
        },
        {
          "indexed": false,
          "internalType": "uint256",
          "name": "amountIn",
          "type": "uint256"
        },
        {
          "indexed": false,
          "internalType": "uint256",
          "name": "amountOut",
          "type": "uint256"
        }
      ],
      "name": "Swap",
      "type": "event"
    },
    {
      "inputs": [],
      "name": "DAI",
      "outputs": [
        {
          "internalType": "address",
          "name": "",
          "type": "address"
        }
      ],
      "stateMutability": "view",
      "type": "function"
    },
    {
      "inputs": [],
      "name": "USDC",
      "outputs": [
        {
          "internalType": "address",
          "name": "",
          "type": "address"
        }
      ],
      "stateMutability": "view",
      "type": "function"
    },
    {
      "inputs": [],
      "name": "WETH",
      "outputs": [
        {
          "internalType": "address",
          "name": "",
          "type": "address"
        }
      ],
      "stateMutability": "view",
      "type": "function"
    },
    {
      "inputs": [
        {
          "internalType": "uint256",
          "name": "amountIn",
          "type": "uint256"
        },
        {
          "internalType": "uint256",
          "name": "amountOutMinimum",
          "type": "uint256"
        }
      ],
      "name": "swapExactInputSingle",
      "outputs": [
        {
          "internalType": "uint256",
          "name": "amountOut",
          "type": "uint256"
        }
      ],
      "stateMutability": "nonpayable",
      "type": "function"
    },
    {
      "inputs": [
        {
          "internalType": "uint256",
          "name": "amountOut",
          "type": "uint256"
        },
        {
          "internalType": "uint256",
          "name": "amountInMaximum",
          "type": "uint256"
        }
      ],
      "name": "swapExactOutputSingle",
      "outputs": [
        {
          "internalType": "uint256",
          "name": "amountIn",
          "type": "uint256"
        }
      ],
      "stateMutability": "nonpayable",
      "type": "function"
    },
    {
      "inputs": [],
      "name": "swapRouter",
      "outputs": [
        {
          "internalType": "contract ISwapRouter",
          "name": "",
          "type": "address"
        }
      ],
      "stateMutability": "view",
      "type": "function"
    }
  ],
  "bytecode": "0x608060405234801561001057600080fd5b506040516119dd3803806119dd8339818101604052810190610032919061015f565b826000806101000a81548173ffffffffffffffffffffffffffffffffffffffff021916908373ffffffffffffffffffffffffffffffffffffffff16021790555081600160006101000a81548173ffffffffffffffffffffffffffffffffffffffff021916908373ffffffffffffffffffffffffffffffffffffffff16021790555080600260006101000a81548173ffffffffffffffffffffffffffffffffffffffff021916908373ffffffffffffffffffffffffffffffffffffffff1602179055505050506101b2565b600080fd5b600073ffffffffffffffffffffffffffffffffffffffff82169050919050565b600061012c82610101565b9050919050565b61013c81610121565b811461014757600080fd5b50565b60008151905061015981610133565b92915050565b600080600060608486031215610178576101776100fc565b5b60006101868682870161014a565b93505060206101978682870161014a565b92505060406101a88682870161014a565b9150509250925092565b61181c806101c16000396000f3fe608060405234801561001057600080fd5b50600436106100625760003560e01c806349cdeeb91461006757806389a3027114610097578063ad5c4648146100b5578063c31c9c07146100d3578063c4b69a18146100f1578063e0bab4c414610121575b600080fd5b610081600480360381019061007c9190610fb2565b61013f565b60405161008e9190611001565b60405180910390f35b61009f6105e9565b6040516100ac919061105d565b60405180910390f35b6100bd61060f565b6040516100ca919061105d565b60405180910390f35b6100db610635565b6040516100e891906110d7565b60405180910390f35b61010b60048036038101906101069190610fb2565b610659565b6040516101189190611001565b60405180910390f35b610129610b4f565b604051610136919061105d565b60405180910390f35b600082600160009054906101000a900473ffffffffffffffffffffffffffffffffffffffff1673ffffffffffffffffffffffffffffffffffffffff166370a08231336040518263ffffffff1660e01b815260040161019d919061105d565b602060405180830381865afa1580156101ba573d6000803e3d6000fd5b505050506040513d601f19601f820116820180604052508101906101de9190611107565b101561021f576040517f08c379a000000000000000000000000000000000000000000000000000000000815260040161021690611191565b60405180910390fd5b82600160009054906101000a900473ffffffffffffffffffffffffffffffffffffffff1673ffffffffffffffffffffffffffffffffffffffff1663dd62ed3e33306040518363ffffffff1660e01b815260040161027d9291906111b1565b602060405180830381865afa15801561029a573d6000803e3d6000fd5b505050506040513d601f19601f820116820180604052508101906102be9190611107565b10156102ff576040517f08c379a00000000000000000000000000000000000000000000000000000000081526004016102f690611226565b60405180910390fd5b61032d600160009054906101000a900473ffffffffffffffffffffffffffffffffffffffff16333086610b75565b61037a600160009054906101000a900473ffffffffffffffffffffffffffffffffffffffff1660008054906101000a900473ffffffffffffffffffffffffffffffffffffffff1685610ccd565b6000604051806101000160405280600160009054906101000a900473ffffffffffffffffffffffffffffffffffffffff1673ffffffffffffffffffffffffffffffffffffffff168152602001600260009054906101000a900473ffffffffffffffffffffffffffffffffffffffff1673ffffffffffffffffffffffffffffffffffffffff168152602001610bb862ffffff1681526020013373ffffffffffffffffffffffffffffffffffffffff1681526020016103844261043b9190611275565b8152602001858152602001848152602001600073ffffffffffffffffffffffffffffffffffffffff16815250905060008054906101000a900473ffffffffffffffffffffffffffffffffffffffff1673ffffffffffffffffffffffffffffffffffffffff1663414bf389826040518263ffffffff1660e01b81526004016104c29190611396565b6020604051808303816000875af11580156104e1573d6000803e3d6000fd5b505050506040513d601f19601f820116820180604052508101906105059190611107565b91506000821161054a576040517f08c379a0000000000000000000000000000000000000000000000000000000008152600401610541906113fe565b60405180910390fd5b3373ffffffffffffffffffffffffffffffffffffffff167fcd3829a3813dc3cdd188fd3d01dcf3268c16be2fdd2dd21d0665418816e46062600160009054906101000a900473ffffffffffffffffffffffffffffffffffffffff16600260009054906101000a900473ffffffffffffffffffffffffffffffffffffffff1687866040516105da949392919061141e565b60405180910390a25092915050565b600360009054906101000a900473ffffffffffffffffffffffffffffffffffffffff1681565b600160009054906101000a900473ffffffffffffffffffffffffffffffffffffffff1681565b60008054906101000a900473ffffffffffffffffffffffffffffffffffffffff1681565b600081600160009054906101000a900473ffffffffffffffffffffffffffffffffffffffff1673ffffffffffffffffffffffffffffffffffffffff166370a08231336040518263ffffffff1660e01b81526004016106b7919061105d565b602060405180830381865afa1580156106d4573d6000803e3d6000fd5b505050506040513d601f19601f820116820180604052508101906106f89190611107565b1015610739576040517f08c379a000000000000000000000000000000000000000000000000000000000815260040161073090611191565b60405180910390fd5b81600160009054906101000a900473ffffffffffffffffffffffffffffffffffffffff1673ffffffffffffffffffffffffffffffffffffffff1663dd62ed3e33306040518363ffffffff1660e01b81526004016107979291906111b1565b602060405180830381865afa1580156107b4573d6000803e3d6000fd5b505050506040513d601f19601f820116820180604052508101906107d89190611107565b1015610819576040517f08c379a000000000000000000000000000000000000000000000000000000000815260040161081090611226565b60405180910390fd5b610847600160009054906101000a900473ffffffffffffffffffffffffffffffffffffffff16333085610b75565b610894600160009054906101000a900473ffffffffffffffffffffffffffffffffffffffff1660008054906101000a900473ffffffffffffffffffffffffffffffffffffffff1684610ccd565b6000604051806101000160405280600160009054906101000a900473ffffffffffffffffffffffffffffffffffffffff1673ffffffffffffffffffffffffffffffffffffffff168152602001600260009054906101000a900473ffffffffffffffffffffffffffffffffffffffff1673ffffffffffffffffffffffffffffffffffffffff168152602001610bb862ffffff1681526020013373ffffffffffffffffffffffffffffffffffffffff168152602001610384426109559190611275565b8152602001858152602001848152602001600073ffffffffffffffffffffffffffffffffffffffff16815250905060008054906101000a900473ffffffffffffffffffffffffffffffffffffffff1673ffffffffffffffffffffffffffffffffffffffff1663db3e2198826040518263ffffffff1660e01b81526004016109dc9190611505565b6020604051808303816000875af11580156109fb573d6000803e3d6000fd5b505050506040513d601f19601f82011682018060405250810190610a1f9190611107565b915082821015610ab057610a77600160009054906101000a900473ffffffffffffffffffffffffffffffffffffffff1660008054906101000a900473ffffffffffffffffffffffffffffffffffffffff166000610ccd565b610aaf600160009054906101000a900473ffffffffffffffffffffffffffffffffffffffff16338486610aaa9190611521565b610e22565b5b3373ffffffffffffffffffffffffffffffffffffffff167fcd3829a3813dc3cdd188fd3d01dcf3268c16be2fdd2dd21d0665418816e46062600160009054906101000a900473ffffffffffffffffffffffffffffffffffffffff16600260009054906101000a900473ffffffffffffffffffffffffffffffffffffffff168588604051610b40949392919061141e565b60405180910390a25092915050565b600260009054906101000a900473ffffffffffffffffffffffffffffffffffffffff1681565b6000808573ffffffffffffffffffffffffffffffffffffffff166323b872dd60e01b868686604051602401610bac93929190611555565b604051602081830303815290604052907bffffffffffffffffffffffffffffffffffffffffffffffffffffffff19166020820180517bffffffffffffffffffffffffffffffffffffffffffffffffffffffff8381831617835250505050604051610c1691906115fd565b6000604051808303816000865af19150503d8060008114610c53576040519150601f19603f3d011682016040523d82523d6000602084013e610c58565b606091505b5091509150818015610c865750600081511480610c85575080806020019051810190610c84919061164c565b5b5b610cc5576040517f08c379a0000000000000000000000000000000000000000000000000000000008152600401610cbc906116c5565b60405180910390fd5b505050505050565b6000808473ffffffffffffffffffffffffffffffffffffffff1663095ea7b360e01b8585604051602401610d029291906116e5565b604051602081830303815290604052907bffffffffffffffffffffffffffffffffffffffffffffffffffffffff19166020820180517bffffffffffffffffffffffffffffffffffffffffffffffffffffffff8381831617835250505050604051610d6c91906115fd565b6000604051808303816000865af19150503d8060008114610da9576040519150601f19603f3d011682016040523d82523d6000602084013e610dae565b606091505b5091509150818015610ddc5750600081511480610ddb575080806020019051810190610dda919061164c565b5b5b610e1b576040517f08c379a0000000000000000000000000000000000000000000000000000000008152600401610e129061175a565b60405180910390fd5b5050505050565b6000808473ffffffffffffffffffffffffffffffffffffffff1663a9059cbb60e01b8585604051602401610e579291906116e5565b604051602081830303815290604052907bffffffffffffffffffffffffffffffffffffffffffffffffffffffff19166020820180517bffffffffffffffffffffffffffffffffffffffffffffffffffffffff8381831617835250505050604051610ec191906115fd565b6000604051808303816000865af19150503d8060008114610efe576040519150601f19603f3d011682016040523d82523d6000602084013e610f03565b606091505b5091509150818015610f315750600081511480610f30575080806020019051810190610f2f919061164c565b5b5b610f70576040517f08c379a0000000000000000000000000000000000000000000000000000000008152600401610f67906117c6565b60405180910390fd5b5050505050565b600080fd5b6000819050919050565b610f8f81610f7c565b8114610f9a57600080fd5b50565b600081359050610fac81610f86565b92915050565b60008060408385031215610fc957610fc8610f77565b5b6000610fd785828601610f9d565b9250506020610fe885828601610f9d565b9150509250929050565b610ffb81610f7c565b82525050565b60006020820190506110166000830184610ff2565b92915050565b600073ffffffffffffffffffffffffffffffffffffffff82169050919050565b60006110478261101c565b9050919050565b6110578161103c565b82525050565b6000602082019050611072600083018461104e565b92915050565b6000819050919050565b600061109d6110986110938461101c565b611078565b61101c565b9050919050565b60006110af82611082565b9050919050565b60006110c1826110a4565b9050919050565b6110d1816110b6565b82525050565b60006020820190506110ec60008301846110c8565b92915050565b60008151905061110181610f86565b92915050565b60006020828403121561111d5761111c610f77565b5b600061112b848285016110f2565b91505092915050565b600082825260208201905092915050565b7f496e73756666696369656e7420574554482062616c616e636500000000000000600082015250565b600061117b601983611134565b915061118682611145565b602082019050919050565b600060208201905081810360008301526111aa8161116e565b9050919050565b60006040820190506111c6600083018561104e565b6111d3602083018461104e565b9392505050565b7f496e73756666696369656e74205745544820616c6c6f77616e63650000000000600082015250565b6000611210601b83611134565b915061121b826111da565b602082019050919050565b6000602082019050818103600083015261123f81611203565b9050919050565b7f4e487b7100000000000000000000000000000000000000000000000000000000600052601160045260246000fd5b600061128082610f7c565b915061128b83610f7c565b92508282019050808211156112a3576112a2611246565b5b92915050565b6112b28161103c565b82525050565b600062ffffff82169050919050565b6112d0816112b8565b82525050565b6112df81610f7c565b82525050565b6112ee8161101c565b82525050565b6101008201600082015161130b60008501826112a9565b50602082015161131e60208501826112a9565b50604082015161133160408501826112c7565b50606082015161134460608501826112a9565b50608082015161135760808501826112d6565b5060a082015161136a60a08501826112d6565b5060c082015161137d60c08501826112d6565b5060e082015161139060e08501826112e5565b50505050565b6000610100820190506113ac60008301846112f4565b92915050565b7f53776170206661696c65643a204e6f206f757470757420726563656976656400600082015250565b60006113e8601f83611134565b91506113f3826113b2565b602082019050919050565b60006020820190508181036000830152611417816113db565b9050919050565b6000608082019050611433600083018761104e565b611440602083018661104e565b61144d6040830185610ff2565b61145a6060830184610ff2565b95945050505050565b6101008201600082015161147a60008501826112a9565b50602082015161148d60208501826112a9565b5060408201516114a060408501826112c7565b5060608201516114b360608501826112a9565b5060808201516114c660808501826112d6565b5060a08201516114d960a08501826112d6565b5060c08201516114ec60c08501826112d6565b5060e08201516114ff60e08501826112e5565b50505050565b60006101008201905061151b6000830184611463565b92915050565b600061152c82610f7c565b915061153783610f7c565b925082820390508181111561154f5761154e611246565b5b92915050565b600060608201905061156a600083018661104e565b611577602083018561104e565b6115846040830184610ff2565b949350505050565b600081519050919050565b600081905092915050565b60005b838110156115c05780820151818401526020810190506115a5565b60008484015250505050565b60006115d78261158c565b6115e18185611597565b93506115f18185602086016115a2565b80840191505092915050565b600061160982846115cc565b915081905092915050565b60008115159050919050565b61162981611614565b811461163457600080fd5b50565b60008151905061164681611620565b92915050565b60006020828403121561166257611661610f77565b5b600061167084828501611637565b91505092915050565b7f5354460000000000000000000000000000000000000000000000000000000000600082015250565b60006116af600383611134565b91506116ba82611679565b602082019050919050565b600060208201905081810360008301526116de816116a2565b9050919050565b60006040820190506116fa600083018561104e565b6117076020830184610ff2565b9392505050565b7f5341000000000000000000000000000000000000000000000000000000000000600082015250565b6000611744600283611134565b915061174f8261170e565b602082019050919050565b6000602082019050818103600083015261177381611737565b9050919050565b7f5354000000000000000000000000000000000000000000000000000000000000600082015250565b60006117b0600283611134565b91506117bb8261177a565b602082019050919050565b600060208201905081810360008301526117df816117a3565b905091905056fea2646970667358221220aab729558ba97ec9db8c54d4f6fdf2ec27168e83e906e9eaeb36605e81bdb89d64736f6c634300081c0033",
  "linkReferences": {},
  "deployedLinkReferences": {}
}