{
  "_format": "hh-sol-artifact-1",
  "contractName": "SwapMultiHop",
  "sourceName": "contracts/SwapMultiHop.sol",
  "abi": [
    {
      "inputs": [
        {
          "internalType": "address",
          "name": "_swapRouter",
          "type": "address"
        },
        {
          "internalType": "address",
          "name": "_weth",
          "type": "address"
        },
        {
          "internalType": "address",
          "name": "_dai",
          "type": "address"
        }
      ],
      "stateMutability": "nonpayable",
      "type": "constructor"
    },
    {
      "anonymous": false,
      "inputs": [
        {
          "indexed": true,
          "internalType": "address",
          "name": "user",
          "type": "address"
        },
        {
          "indexed": false,
          "internalType": "address",
          "name": "tokenIn",
          "type": "address"
        },
        {
          "indexed": false,
          "internalType": "address",
          "name": "tokenOut",
          "type": "address"
        },
        {
          "indexed": false,
          "internalType": "uint256",
          "name": "amountIn",
          "type": "uint256"
        },
        {
          "indexed": false,
          "internalType": "uint256",
          "name": "amountOut",
          "type": "uint256"
        }
      ],
      "name": "Swap",
      "type": "event"
    },
    {
      "inputs": [],
      "name": "DAI",
      "outputs": [
        {
          "internalType": "address",
          "name": "",
          "type": "address"
        }
      ],
      "stateMutability": "view",
      "type": "function"
    },
    {
      "inputs": [],
      "name": "WETH",
      "outputs": [
        {
          "internalType": "address",
          "name": "",
          "type": "address"
        }
      ],
      "stateMutability": "view",
      "type": "function"
    },
    {
      "inputs": [
        {
          "internalType": "uint256",
          "name": "amountIn",
          "type": "uint256"
        },
        {
          "internalType": "uint256",
          "name": "amountOutMinimum",
          "type": "uint256"
        },
        {
          "internalType": "bytes",
          "name": "path",
          "type": "bytes"
        }
      ],
      "name": "swapExactInputMultihop",
      "outputs": [
        {
          "internalType": "uint256",
          "name": "amountOut",
          "type": "uint256"
        }
      ],
      "stateMutability": "nonpayable",
      "type": "function"
    },
    {
      "inputs": [
        {
          "internalType": "uint256",
          "name": "amountOut",
          "type": "uint256"
        },
        {
          "internalType": "uint256",
          "name": "amountInMaximum",
          "type": "uint256"
        },
        {
          "internalType": "bytes",
          "name": "path",
          "type": "bytes"
        }
      ],
      "name": "swapExactOutputMultihop",
      "outputs": [
        {
          "internalType": "uint256",
          "name": "amountIn",
          "type": "uint256"
        }
      ],
      "stateMutability": "nonpayable",
      "type": "function"
    },
    {
      "inputs": [],
      "name": "swapRouter",
      "outputs": [
        {
          "internalType": "contract ISwapRouter",
          "name": "",
          "type": "address"
        }
      ],
      "stateMutability": "view",
      "type": "function"
    }
  ],
  "bytecode": "0x60e060405234801561001057600080fd5b50604051611e90380380611e9083398181016040528101906100329190610139565b8273ffffffffffffffffffffffffffffffffffffffff1660808173ffffffffffffffffffffffffffffffffffffffff16815250508173ffffffffffffffffffffffffffffffffffffffff1660a08173ffffffffffffffffffffffffffffffffffffffff16815250508073ffffffffffffffffffffffffffffffffffffffff1660c08173ffffffffffffffffffffffffffffffffffffffff168152505050505061018c565b600080fd5b600073ffffffffffffffffffffffffffffffffffffffff82169050919050565b6000610106826100db565b9050919050565b610116816100fb565b811461012157600080fd5b50565b6000815190506101338161010d565b92915050565b600080600060608486031215610152576101516100d6565b5b600061016086828701610124565b935050602061017186828701610124565b925050604061018286828701610124565b9150509250925092565b60805160a05160c051611c3461025c600039600081816101e3015281816106f9015281816107630152818161082e0152610cb901526000818161011801528181610155015281816102720152818161034e0152818161042e0152818161045a015281816106200152818161066c015281816106d8015281816107a0015281816108bd0152818161099901528181610a7901528181610aa50152610c9801526000818161047b01528181610534015281816106410152818161073f01528181610ac60152610b7f0152611c346000f3fe608060405234801561001057600080fd5b50600436106100575760003560e01c8063ad5c46481461005c578063af8e7cfc1461007a578063c31c9c07146100aa578063e0bab4c4146100c8578063ffb77094146100e6575b600080fd5b610064610116565b6040516100719190611140565b60405180910390f35b610094600480360381019061008f9190611200565b61013a565b6040516100a19190611283565b60405180910390f35b6100b261073d565b6040516100bf91906112fd565b60405180910390f35b6100d0610761565b6040516100dd9190611140565b60405180910390f35b61010060048036038101906100fb9190611200565b610785565b60405161010d9190611283565b60405180910390f35b7f000000000000000000000000000000000000000000000000000000000000000081565b6000806000848481019061014e9190611391565b92505091507f000000000000000000000000000000000000000000000000000000000000000073ffffffffffffffffffffffffffffffffffffffff168173ffffffffffffffffffffffffffffffffffffffff16146101e1576040517f08c379a00000000000000000000000000000000000000000000000000000000081526004016101d890611441565b60405180910390fd5b7f000000000000000000000000000000000000000000000000000000000000000073ffffffffffffffffffffffffffffffffffffffff168273ffffffffffffffffffffffffffffffffffffffff161461026f576040517f08c379a0000000000000000000000000000000000000000000000000000000008152600401610266906114ad565b60405180910390fd5b857f000000000000000000000000000000000000000000000000000000000000000073ffffffffffffffffffffffffffffffffffffffff166370a08231336040518263ffffffff1660e01b81526004016102c99190611140565b602060405180830381865afa1580156102e6573d6000803e3d6000fd5b505050506040513d601f19601f8201168201806040525081019061030a91906114e2565b101561034b576040517f08c379a00000000000000000000000000000000000000000000000000000000081526004016103429061155b565b60405180910390fd5b857f000000000000000000000000000000000000000000000000000000000000000073ffffffffffffffffffffffffffffffffffffffff1663dd62ed3e33306040518363ffffffff1660e01b81526004016103a792919061157b565b602060405180830381865afa1580156103c4573d6000803e3d6000fd5b505050506040513d601f19601f820116820180604052508101906103e891906114e2565b1015610429576040517f08c379a0000000000000000000000000000000000000000000000000000000008152600401610420906115f0565b60405180910390fd5b6104557f0000000000000000000000000000000000000000000000000000000000000000333089610cfd565b6104a07f00000000000000000000000000000000000000000000000000000000000000007f000000000000000000000000000000000000000000000000000000000000000088610e55565b60006040518060a0016040528087878080601f016020809104026020016040519081016040528093929190818152602001838380828437600081840152601f19601f8201169050808301925050505050505081526020013373ffffffffffffffffffffffffffffffffffffffff16815260200161038442610521919061163f565b81526020018981526020018881525090507f000000000000000000000000000000000000000000000000000000000000000073ffffffffffffffffffffffffffffffffffffffff1663f28c0498826040518263ffffffff1660e01b815260040161058b9190611797565b6020604051808303816000875af11580156105aa573d6000803e3d6000fd5b505050506040513d601f19601f820116820180604052508101906105ce91906114e2565b935060008411610613576040517f08c379a000000000000000000000000000000000000000000000000000000000815260040161060a90611805565b60405180910390fd5b8684101561069e576106677f00000000000000000000000000000000000000000000000000000000000000007f00000000000000000000000000000000000000000000000000000000000000006000610e55565b61069d7f000000000000000000000000000000000000000000000000000000000000000033868a6106989190611825565b610faa565b5b3373ffffffffffffffffffffffffffffffffffffffff167fcd3829a3813dc3cdd188fd3d01dcf3268c16be2fdd2dd21d0665418816e460627f00000000000000000000000000000000000000000000000000000000000000007f0000000000000000000000000000000000000000000000000000000000000000878c60405161072a9493929190611859565b60405180910390a2505050949350505050565b7f000000000000000000000000000000000000000000000000000000000000000081565b7f000000000000000000000000000000000000000000000000000000000000000081565b600080600084848101906107999190611391565b92505091507f000000000000000000000000000000000000000000000000000000000000000073ffffffffffffffffffffffffffffffffffffffff168273ffffffffffffffffffffffffffffffffffffffff161461082c576040517f08c379a000000000000000000000000000000000000000000000000000000000815260040161082390611441565b60405180910390fd5b7f000000000000000000000000000000000000000000000000000000000000000073ffffffffffffffffffffffffffffffffffffffff168173ffffffffffffffffffffffffffffffffffffffff16146108ba576040517f08c379a00000000000000000000000000000000000000000000000000000000081526004016108b1906114ad565b60405180910390fd5b867f000000000000000000000000000000000000000000000000000000000000000073ffffffffffffffffffffffffffffffffffffffff166370a08231336040518263ffffffff1660e01b81526004016109149190611140565b602060405180830381865afa158015610931573d6000803e3d6000fd5b505050506040513d601f19601f8201168201806040525081019061095591906114e2565b1015610996576040517f08c379a000000000000000000000000000000000000000000000000000000000815260040161098d9061155b565b60405180910390fd5b867f000000000000000000000000000000000000000000000000000000000000000073ffffffffffffffffffffffffffffffffffffffff1663dd62ed3e33306040518363ffffffff1660e01b81526004016109f292919061157b565b602060405180830381865afa158015610a0f573d6000803e3d6000fd5b505050506040513d601f19601f82011682018060405250810190610a3391906114e2565b1015610a74576040517f08c379a0000000000000000000000000000000000000000000000000000000008152600401610a6b906115f0565b60405180910390fd5b610aa07f000000000000000000000000000000000000000000000000000000000000000033308a610cfd565b610aeb7f00000000000000000000000000000000000000000000000000000000000000007f000000000000000000000000000000000000000000000000000000000000000089610e55565b60006040518060a0016040528087878080601f016020809104026020016040519081016040528093929190818152602001838380828437600081840152601f19601f8201169050808301925050505050505081526020013373ffffffffffffffffffffffffffffffffffffffff16815260200161038442610b6c919061163f565b81526020018981526020018881525090507f000000000000000000000000000000000000000000000000000000000000000073ffffffffffffffffffffffffffffffffffffffff1663c04b8d59826040518263ffffffff1660e01b8152600401610bd69190611914565b6020604051808303816000875af1158015610bf5573d6000803e3d6000fd5b505050506040513d601f19601f82011682018060405250810190610c1991906114e2565b935060008411610c5e576040517f08c379a0000000000000000000000000000000000000000000000000000000008152600401610c5590611982565b60405180910390fd5b3373ffffffffffffffffffffffffffffffffffffffff167fcd3829a3813dc3cdd188fd3d01dcf3268c16be2fdd2dd21d0665418816e460627f00000000000000000000000000000000000000000000000000000000000000007f00000000000000000000000000000000000000000000000000000000000000008b88604051610cea9493929190611859565b60405180910390a2505050949350505050565b6000808573ffffffffffffffffffffffffffffffffffffffff166323b872dd60e01b868686604051602401610d34939291906119a2565b604051602081830303815290604052907bffffffffffffffffffffffffffffffffffffffffffffffffffffffff19166020820180517bffffffffffffffffffffffffffffffffffffffffffffffffffffffff8381831617835250505050604051610d9e9190611a15565b6000604051808303816000865af19150503d8060008114610ddb576040519150601f19603f3d011682016040523d82523d6000602084013e610de0565b606091505b5091509150818015610e0e5750600081511480610e0d575080806020019051810190610e0c9190611a64565b5b5b610e4d576040517f08c379a0000000000000000000000000000000000000000000000000000000008152600401610e4490611add565b60405180910390fd5b505050505050565b6000808473ffffffffffffffffffffffffffffffffffffffff1663095ea7b360e01b8585604051602401610e8a929190611afd565b604051602081830303815290604052907bffffffffffffffffffffffffffffffffffffffffffffffffffffffff19166020820180517bffffffffffffffffffffffffffffffffffffffffffffffffffffffff8381831617835250505050604051610ef49190611a15565b6000604051808303816000865af19150503d8060008114610f31576040519150601f19603f3d011682016040523d82523d6000602084013e610f36565b606091505b5091509150818015610f645750600081511480610f63575080806020019051810190610f629190611a64565b5b5b610fa3576040517f08c379a0000000000000000000000000000000000000000000000000000000008152600401610f9a90611b72565b60405180910390fd5b5050505050565b6000808473ffffffffffffffffffffffffffffffffffffffff1663a9059cbb60e01b8585604051602401610fdf929190611afd565b604051602081830303815290604052907bffffffffffffffffffffffffffffffffffffffffffffffffffffffff19166020820180517bffffffffffffffffffffffffffffffffffffffffffffffffffffffff83818316178352505050506040516110499190611a15565b6000604051808303816000865af19150503d8060008114611086576040519150601f19603f3d011682016040523d82523d6000602084013e61108b565b606091505b50915091508180156110b957506000815114806110b85750808060200190518101906110b79190611a64565b5b5b6110f8576040517f08c379a00000000000000000000000000000000000000000000000000000000081526004016110ef90611bde565b60405180910390fd5b5050505050565b600073ffffffffffffffffffffffffffffffffffffffff82169050919050565b600061112a826110ff565b9050919050565b61113a8161111f565b82525050565b60006020820190506111556000830184611131565b92915050565b600080fd5b600080fd5b6000819050919050565b61117881611165565b811461118357600080fd5b50565b6000813590506111958161116f565b92915050565b600080fd5b600080fd5b600080fd5b60008083601f8401126111c0576111bf61119b565b5b8235905067ffffffffffffffff8111156111dd576111dc6111a0565b5b6020830191508360018202830111156111f9576111f86111a5565b5b9250929050565b6000806000806060858703121561121a5761121961115b565b5b600061122887828801611186565b945050602061123987828801611186565b935050604085013567ffffffffffffffff81111561125a57611259611160565b5b611266878288016111aa565b925092505092959194509250565b61127d81611165565b82525050565b60006020820190506112986000830184611274565b92915050565b6000819050919050565b60006112c36112be6112b9846110ff565b61129e565b6110ff565b9050919050565b60006112d5826112a8565b9050919050565b60006112e7826112ca565b9050919050565b6112f7816112dc565b82525050565b600060208201905061131260008301846112ee565b92915050565b6000611323826110ff565b9050919050565b61133381611318565b811461133e57600080fd5b50565b6000813590506113508161132a565b92915050565b600062ffffff82169050919050565b61136e81611356565b811461137957600080fd5b50565b60008135905061138b81611365565b92915050565b6000806000606084860312156113aa576113a961115b565b5b60006113b886828701611341565b93505060206113c98682870161137c565b92505060406113da86828701611341565b9150509250925092565b600082825260208201905092915050565b7f546f6b656e496e206d7573742062652057455448000000000000000000000000600082015250565b600061142b6014836113e4565b9150611436826113f5565b602082019050919050565b6000602082019050818103600083015261145a8161141e565b9050919050565b7f546f6b656e4f7574206d75737420626520444149000000000000000000000000600082015250565b60006114976014836113e4565b91506114a282611461565b602082019050919050565b600060208201905081810360008301526114c68161148a565b9050919050565b6000815190506114dc8161116f565b92915050565b6000602082840312156114f8576114f761115b565b5b6000611506848285016114cd565b91505092915050565b7f496e73756666696369656e7420574554482062616c616e636500000000000000600082015250565b60006115456019836113e4565b91506115508261150f565b602082019050919050565b6000602082019050818103600083015261157481611538565b9050919050565b60006040820190506115906000830185611131565b61159d6020830184611131565b9392505050565b7f496e73756666696369656e74205745544820616c6c6f77616e63650000000000600082015250565b60006115da601b836113e4565b91506115e5826115a4565b602082019050919050565b60006020820190508181036000830152611609816115cd565b9050919050565b7f4e487b7100000000000000000000000000000000000000000000000000000000600052601160045260246000fd5b600061164a82611165565b915061165583611165565b925082820190508082111561166d5761166c611610565b5b92915050565b600081519050919050565b600082825260208201905092915050565b60005b838110156116ad578082015181840152602081019050611692565b60008484015250505050565b6000601f19601f8301169050919050565b60006116d582611673565b6116df818561167e565b93506116ef81856020860161168f565b6116f8816116b9565b840191505092915050565b61170c8161111f565b82525050565b61171b81611165565b82525050565b600060a083016000830151848203600086015261173e82826116ca565b91505060208301516117536020860182611703565b5060408301516117666040860182611712565b5060608301516117796060860182611712565b50608083015161178c6080860182611712565b508091505092915050565b600060208201905081810360008301526117b18184611721565b905092915050565b7f53776170206661696c65643a204e6f20696e7075742075736564000000000000600082015250565b60006117ef601a836113e4565b91506117fa826117b9565b602082019050919050565b6000602082019050818103600083015261181e816117e2565b9050919050565b600061183082611165565b915061183b83611165565b925082820390508181111561185357611852611610565b5b92915050565b600060808201905061186e6000830187611131565b61187b6020830186611131565b6118886040830185611274565b6118956060830184611274565b95945050505050565b600060a08301600083015184820360008601526118bb82826116ca565b91505060208301516118d06020860182611703565b5060408301516118e36040860182611712565b5060608301516118f66060860182611712565b5060808301516119096080860182611712565b508091505092915050565b6000602082019050818103600083015261192e818461189e565b905092915050565b7f53776170206661696c65643a204e6f206f757470757420726563656976656400600082015250565b600061196c601f836113e4565b915061197782611936565b602082019050919050565b6000602082019050818103600083015261199b8161195f565b9050919050565b60006060820190506119b76000830186611131565b6119c46020830185611131565b6119d16040830184611274565b949350505050565b600081905092915050565b60006119ef82611673565b6119f981856119d9565b9350611a0981856020860161168f565b80840191505092915050565b6000611a2182846119e4565b915081905092915050565b60008115159050919050565b611a4181611a2c565b8114611a4c57600080fd5b50565b600081519050611a5e81611a38565b92915050565b600060208284031215611a7a57611a7961115b565b5b6000611a8884828501611a4f565b91505092915050565b7f5354460000000000000000000000000000000000000000000000000000000000600082015250565b6000611ac76003836113e4565b9150611ad282611a91565b602082019050919050565b60006020820190508181036000830152611af681611aba565b9050919050565b6000604082019050611b126000830185611131565b611b1f6020830184611274565b9392505050565b7f5341000000000000000000000000000000000000000000000000000000000000600082015250565b6000611b5c6002836113e4565b9150611b6782611b26565b602082019050919050565b60006020820190508181036000830152611b8b81611b4f565b9050919050565b7f5354000000000000000000000000000000000000000000000000000000000000600082015250565b6000611bc86002836113e4565b9150611bd382611b92565b602082019050919050565b60006020820190508181036000830152611bf781611bbb565b905091905056fea2646970667358221220e2c3829fb534990ab962b7e4d7d4edfbd5ff9d7afda521e7a5fded0292595ea364736f6c634300081c0033",
  "linkReferences": {},
  "deployedLinkReferences": {}
}